{
  "contractName": "image",
  "abi": [
    {
      "inputs": [
        {
          "internalType": "address",
          "name": "user",
          "type": "address"
        },
        {
          "internalType": "string",
          "name": "name",
          "type": "string"
        },
        {
          "internalType": "string",
          "name": "imageT",
          "type": "string"
        }
      ],
      "name": "addImage",
      "outputs": [],
      "stateMutability": "nonpayable",
      "type": "function"
    },
    {
      "inputs": [],
      "name": "viewImages",
      "outputs": [
        {
          "internalType": "address[]",
          "name": "",
          "type": "address[]"
        },
        {
          "internalType": "string[]",
          "name": "",
          "type": "string[]"
        },
        {
          "internalType": "string[]",
          "name": "",
          "type": "string[]"
        },
        {
          "internalType": "address[][]",
          "name": "",
          "type": "address[][]"
        }
      ],
      "stateMutability": "view",
      "type": "function",
      "constant": true
    },
    {
      "inputs": [
        {
          "internalType": "string",
          "name": "img",
          "type": "string"
        },
        {
          "internalType": "address",
          "name": "user",
          "type": "address"
        }
      ],
      "name": "addToken",
      "outputs": [],
      "stateMutability": "nonpayable",
      "type": "function"
    },
    {
      "inputs": [
        {
          "internalType": "string",
          "name": "img",
          "type": "string"
        },
        {
          "internalType": "address",
          "name": "user",
          "type": "address"
        }
      ],
      "name": "removeToken",
      "outputs": [],
      "stateMutability": "nonpayable",
      "type": "function"
    }
  ],
  "bytecode": "0x608060405234801561001057600080fd5b50611403806100206000396000f3fe608060405234801561001057600080fd5b506004361061004c5760003560e01c80630c4130cb146100515780634f5d97791461006d578063b0b22c2c1461008e578063e3c5c2a9146100aa575b600080fd5b61006b60048036038101906100669190610ad1565b6100c6565b005b610075610276565b6040516100859493929190610e95565b60405180910390f35b6100a860048036038101906100a39190610ef6565b61058f565b005b6100c460048036038101906100bf9190610ef6565b6106a7565b005b6004816040516100d69190610f8e565b908152602001604051809103902060009054906101000a900460ff16156100fc57600080fd5b600160048260405161010e9190610f8e565b908152602001604051809103902060006101000a81548160ff0219169083151502179055506000839080600181540180825580915050600190039060005260206000200160009091909190916101000a81548173ffffffffffffffffffffffffffffffffffffffff021916908373ffffffffffffffffffffffffffffffffffffffff1602179055506002829080600181540180825580915050600190039060005260206000200160009091909190915090816101ca91906111bb565b506001819080600181540180825580915050600190039060005260206000200160009091909190915090816101ff91906111bb565b50600360405180602001604052808573ffffffffffffffffffffffffffffffffffffffff1673ffffffffffffffffffffffffffffffffffffffff1681525090806001815401808255809150506001900390600052602060002001600090919091909150906001610270929190610872565b50505050565b60608060608060006002600160038380548060200260200160405190810160405280929190818152602001828054801561030557602002820191906000526020600020905b8160009054906101000a900473ffffffffffffffffffffffffffffffffffffffff1673ffffffffffffffffffffffffffffffffffffffff16815260200190600101908083116102bb575b5050505050935082805480602002602001604051908101604052809291908181526020016000905b828210156103d957838290600052602060002001805461034c90610fd4565b80601f016020809104026020016040519081016040528092919081815260200182805461037890610fd4565b80156103c55780601f1061039a576101008083540402835291602001916103c5565b820191906000526020600020905b8154815290600101906020018083116103a857829003601f168201915b50505050508152602001906001019061032d565b50505050925081805480602002602001604051908101604052809291908181526020016000905b828210156104ac57838290600052602060002001805461041f90610fd4565b80601f016020809104026020016040519081016040528092919081815260200182805461044b90610fd4565b80156104985780601f1061046d57610100808354040283529160200191610498565b820191906000526020600020905b81548152906001019060200180831161047b57829003601f168201915b505050505081526020019060010190610400565b50505050915080805480602002602001604051908101604052809291908181526020016000905b8282101561057b5783829060005260206000200180548060200260200160405190810160405280929190818152602001828054801561056757602002820191906000526020600020905b8160009054906101000a900473ffffffffffffffffffffffffffffffffffffffff1673ffffffffffffffffffffffffffffffffffffffff168152602001906001019080831161051d575b5050505050815260200190600101906104d3565b505050509050935093509350935090919293565b60005b6001805490508110156106a257600181815481106105b3576105b261128d565b5b906000526020600020016040516020016105cd919061133f565b60405160208183030381529060405280519060200120836040516020016105f49190610f8e565b604051602081830303815290604052805190602001200361068f57600381815481106106235761062261128d565b5b90600052602060002001829080600181540180825580915050600190039060005260206000200160009091909190916101000a81548173ffffffffffffffffffffffffffffffffffffffff021916908373ffffffffffffffffffffffffffffffffffffffff1602179055505b808061069a90611385565b915050610592565b505050565b600080600091505b60018054905082101561086c57600182815481106106d0576106cf61128d565b5b906000526020600020016040516020016106ea919061133f565b60405160208183030381529060405280519060200120846040516020016107119190610f8e565b604051602081830303815290604052805190602001200361085957600090505b600382815481106107455761074461128d565b5b9060005260206000200180549050811015610858578273ffffffffffffffffffffffffffffffffffffffff16600383815481106107855761078461128d565b5b9060005260206000200182815481106107a1576107a061128d565b5b9060005260206000200160009054906101000a900473ffffffffffffffffffffffffffffffffffffffff1673ffffffffffffffffffffffffffffffffffffffff160361084557600382815481106107fb576107fa61128d565b5b9060005260206000200181815481106108175761081661128d565b5b9060005260206000200160006101000a81549073ffffffffffffffffffffffffffffffffffffffff02191690555b808061085090611385565b915050610731565b5b818061086490611385565b9250506106af565b50505050565b8280548282559060005260206000209081019282156108eb579160200282015b828111156108ea5782518260006101000a81548173ffffffffffffffffffffffffffffffffffffffff021916908373ffffffffffffffffffffffffffffffffffffffff16021790555091602001919060010190610892565b5b5090506108f891906108fc565b5090565b5b808211156109155760008160009055506001016108fd565b5090565b6000604051905090565b600080fd5b600080fd5b600073ffffffffffffffffffffffffffffffffffffffff82169050919050565b60006109588261092d565b9050919050565b6109688161094d565b811461097357600080fd5b50565b6000813590506109858161095f565b92915050565b600080fd5b600080fd5b6000601f19601f8301169050919050565b7f4e487b7100000000000000000000000000000000000000000000000000000000600052604160045260246000fd5b6109de82610995565b810181811067ffffffffffffffff821117156109fd576109fc6109a6565b5b80604052505050565b6000610a10610919565b9050610a1c82826109d5565b919050565b600067ffffffffffffffff821115610a3c57610a3b6109a6565b5b610a4582610995565b9050602081019050919050565b82818337600083830152505050565b6000610a74610a6f84610a21565b610a06565b905082815260208101848484011115610a9057610a8f610990565b5b610a9b848285610a52565b509392505050565b600082601f830112610ab857610ab761098b565b5b8135610ac8848260208601610a61565b91505092915050565b600080600060608486031215610aea57610ae9610923565b5b6000610af886828701610976565b935050602084013567ffffffffffffffff811115610b1957610b18610928565b5b610b2586828701610aa3565b925050604084013567ffffffffffffffff811115610b4657610b45610928565b5b610b5286828701610aa3565b9150509250925092565b600081519050919050565b600082825260208201905092915050565b6000819050602082019050919050565b610b918161094d565b82525050565b6000610ba38383610b88565b60208301905092915050565b6000602082019050919050565b6000610bc782610b5c565b610bd18185610b67565b9350610bdc83610b78565b8060005b83811015610c0d578151610bf48882610b97565b9750610bff83610baf565b925050600181019050610be0565b5085935050505092915050565b600081519050919050565b600082825260208201905092915050565b6000819050602082019050919050565b600081519050919050565b600082825260208201905092915050565b60005b83811015610c80578082015181840152602081019050610c65565b83811115610c8f576000848401525b50505050565b6000610ca082610c46565b610caa8185610c51565b9350610cba818560208601610c62565b610cc381610995565b840191505092915050565b6000610cda8383610c95565b905092915050565b6000602082019050919050565b6000610cfa82610c1a565b610d048185610c25565b935083602082028501610d1685610c36565b8060005b85811015610d525784840389528151610d338582610cce565b9450610d3e83610ce2565b925060208a01995050600181019050610d1a565b50829750879550505050505092915050565b600081519050919050565b600082825260208201905092915050565b6000819050602082019050919050565b600082825260208201905092915050565b6000610dac82610b5c565b610db68185610d90565b9350610dc183610b78565b8060005b83811015610df2578151610dd98882610b97565b9750610de483610baf565b925050600181019050610dc5565b5085935050505092915050565b6000610e0b8383610da1565b905092915050565b6000602082019050919050565b6000610e2b82610d64565b610e358185610d6f565b935083602082028501610e4785610d80565b8060005b85811015610e835784840389528151610e648582610dff565b9450610e6f83610e13565b925060208a01995050600181019050610e4b565b50829750879550505050505092915050565b60006080820190508181036000830152610eaf8187610bbc565b90508181036020830152610ec38186610cef565b90508181036040830152610ed78185610cef565b90508181036060830152610eeb8184610e20565b905095945050505050565b60008060408385031215610f0d57610f0c610923565b5b600083013567ffffffffffffffff811115610f2b57610f2a610928565b5b610f3785828601610aa3565b9250506020610f4885828601610976565b9150509250929050565b600081905092915050565b6000610f6882610c46565b610f728185610f52565b9350610f82818560208601610c62565b80840191505092915050565b6000610f9a8284610f5d565b915081905092915050565b7f4e487b7100000000000000000000000000000000000000000000000000000000600052602260045260246000fd5b60006002820490506001821680610fec57607f821691505b602082108103610fff57610ffe610fa5565b5b50919050565b60008190508160005260206000209050919050565b60006020601f8301049050919050565b600082821b905092915050565b6000600883026110677fffffffffffffffffffffffffffffffffffffffffffffffffffffffffffffffff8261102a565b611071868361102a565b95508019841693508086168417925050509392505050565b6000819050919050565b6000819050919050565b60006110b86110b36110ae84611089565b611093565b611089565b9050919050565b6000819050919050565b6110d28361109d565b6110e66110de826110bf565b848454611037565b825550505050565b600090565b6110fb6110ee565b6111068184846110c9565b505050565b5b8181101561112a5761111f6000826110f3565b60018101905061110c565b5050565b601f82111561116f5761114081611005565b6111498461101a565b81016020851015611158578190505b61116c6111648561101a565b83018261110b565b50505b505050565b600082821c905092915050565b600061119260001984600802611174565b1980831691505092915050565b60006111ab8383611181565b9150826002028217905092915050565b6111c482610c46565b67ffffffffffffffff8111156111dd576111dc6109a6565b5b6111e78254610fd4565b6111f282828561112e565b600060209050601f8311600181146112255760008415611213578287015190505b61121d858261119f565b865550611285565b601f19841661123386611005565b60005b8281101561125b57848901518255600182019150602085019450602081019050611236565b868310156112785784890151611274601f891682611181565b8355505b6001600288020188555050505b505050505050565b7f4e487b7100000000000000000000000000000000000000000000000000000000600052603260045260246000fd5b600081546112c981610fd4565b6112d38186610f52565b945060018216600081146112ee576001811461130357611336565b60ff1983168652811515820286019350611336565b61130c85611005565b60005b8381101561132e5781548189015260018201915060208101905061130f565b838801955050505b50505092915050565b600061134b82846112bc565b915081905092915050565b7f4e487b7100000000000000000000000000000000000000000000000000000000600052601160045260246000fd5b600061139082611089565b91507fffffffffffffffffffffffffffffffffffffffffffffffffffffffffffffffff82036113c2576113c1611356565b5b60018201905091905056fea2646970667358221220d0e4f8192e61456cc20b724d50cc6a7331a5eae5581af9f1d28d4b0f5689069864736f6c634300080f0033",
  "immutableReferences": {},
  "source": "// SPDX-License-Identifier: MIT\npragma solidity >=0.4.22 <0.9.0;\n\ncontract image {\n  address[] _users;\n  string[] _images;\n  string[] _names;\n  address[][] _tokens;\n\n  mapping(string=>bool) imgs;\n\n  function addImage(address user,string memory name,string memory imageT) public {\n    require(!imgs[imageT]);\n\n    imgs[imageT]=true;\n    _users.push(user);\n    _names.push(name);\n    _images.push(imageT);\n    _tokens.push([user]);\n  }\n\n  function viewImages() public view returns(address[] memory,string[] memory,string[] memory,address[][] memory){\n    return(_users,_names,_images,_tokens);\n  }\n\n  function addToken(string memory img,address user) public {\n    uint i;\n    \n    for(i=0;i<_images.length;i++){\n        if(keccak256(abi.encodePacked(img)) == keccak256(abi.encodePacked(_images[i]))){\n            _tokens[i].push(user);\n        }\n    }\n  }\n\n  function removeToken(string memory img,address user) public {\n    uint i;\n    uint j;\n\n    for(i=0;i<_images.length;i++){\n        if(keccak256(abi.encodePacked(img)) == keccak256(abi.encodePacked(_images[i]))){\n            for(j=0;j<_tokens[i].length;j++){\n                if(_tokens[i][j]==user){\n                    delete _tokens[i][j];\n                }\n            }\n        }\n    }\n  }\n}\n",
  "sourcePath": "/Users/ms/Desktop/WiFi-Imaging-System/contracts/image.sol",
  "compiler": {
    "name": "solc",
    "version": "0.8.15+commit.e14f2714.Emscripten.clang"
  },
  "schemaVersion": "3.4.8",
  "updatedAt": "2023-02-06T16:25:50.844Z",
  "networkType": "ethereum",
  "devdoc": {
    "kind": "dev",
    "methods": {},
    "version": 1
  },
  "userdoc": {
    "kind": "user",
    "methods": {},
    "version": 1
  }
}