{
  "contractName": "image",
  "abi": [
    {
      "inputs": [
        {
          "internalType": "address",
          "name": "user",
          "type": "address"
        },
        {
          "internalType": "bytes32",
          "name": "imageT",
          "type": "bytes32"
        }
      ],
      "name": "addImage",
      "outputs": [],
      "stateMutability": "nonpayable",
      "type": "function"
    },
    {
      "inputs": [],
      "name": "viewImages",
      "outputs": [
        {
          "internalType": "address[]",
          "name": "",
          "type": "address[]"
        },
        {
          "internalType": "bytes32[]",
          "name": "",
          "type": "bytes32[]"
        },
        {
          "internalType": "address[][]",
          "name": "",
          "type": "address[][]"
        }
      ],
      "stateMutability": "view",
      "type": "function",
      "constant": true
    },
    {
      "inputs": [
        {
          "internalType": "bytes32",
          "name": "img",
          "type": "bytes32"
        },
        {
          "internalType": "address",
          "name": "user",
          "type": "address"
        }
      ],
      "name": "addToken",
      "outputs": [],
      "stateMutability": "nonpayable",
      "type": "function"
    }
  ],
  "bytecode": "0x608060405234801561001057600080fd5b50610a21806100206000396000f3fe608060405234801561001057600080fd5b50600436106100415760003560e01c80634f5d9779146100465780639776aacf14610066578063b89dd3db14610082575b600080fd5b61004e61009e565b60405161005d93929190610812565b60405180910390f35b610080600480360381019061007b91906108bb565b61025d565b005b61009c600480360381019061009791906108fb565b61032a565b005b60608060606000600160028280548060200260200160405190810160405280929190818152602001828054801561012a57602002820191906000526020600020905b8160009054906101000a900473ffffffffffffffffffffffffffffffffffffffff1673ffffffffffffffffffffffffffffffffffffffff16815260200190600101908083116100e0575b505050505092508180548060200260200160405190810160405280929190818152602001828054801561017c57602002820191906000526020600020905b815481526020019060010190808311610168575b5050505050915080805480602002602001604051908101604052809291908181526020016000905b8282101561024c5783829060005260206000200180548060200260200160405190810160405280929190818152602001828054801561023857602002820191906000526020600020905b8160009054906101000a900473ffffffffffffffffffffffffffffffffffffffff1673ffffffffffffffffffffffffffffffffffffffff16815260200190600101908083116101ee575b5050505050815260200190600101906101a4565b505050509050925092509250909192565b60005b6001805490508110156103255782600182815481106102825761028161093b565b5b90600052602060002001540361031257600281815481106102a6576102a561093b565b5b90600052602060002001829080600181540180825580915050600190039060005260206000200160009091909190916101000a81548173ffffffffffffffffffffffffffffffffffffffff021916908373ffffffffffffffffffffffffffffffffffffffff1602179055505b808061031d906109a3565b915050610260565b505050565b6003600082815260200190815260200160002060009054906101000a900460ff161561035557600080fd5b60016003600083815260200190815260200160002060006101000a81548160ff0219169083151502179055506000829080600181540180825580915050600190039060005260206000200160009091909190916101000a81548173ffffffffffffffffffffffffffffffffffffffff021916908373ffffffffffffffffffffffffffffffffffffffff1602179055506001819080600181540180825580915050600190039060005260206000200160009091909190915055600260405180602001604052808473ffffffffffffffffffffffffffffffffffffffff1673ffffffffffffffffffffffffffffffffffffffff168152509080600181540180825580915050600190039060005260206000200160009091909190915090600161047d929190610482565b505050565b8280548282559060005260206000209081019282156104fb579160200282015b828111156104fa5782518260006101000a81548173ffffffffffffffffffffffffffffffffffffffff021916908373ffffffffffffffffffffffffffffffffffffffff160217905550916020019190600101906104a2565b5b509050610508919061050c565b5090565b5b8082111561052557600081600090555060010161050d565b5090565b600081519050919050565b600082825260208201905092915050565b6000819050602082019050919050565b600073ffffffffffffffffffffffffffffffffffffffff82169050919050565b600061058082610555565b9050919050565b61059081610575565b82525050565b60006105a28383610587565b60208301905092915050565b6000602082019050919050565b60006105c682610529565b6105d08185610534565b93506105db83610545565b8060005b8381101561060c5781516105f38882610596565b97506105fe836105ae565b9250506001810190506105df565b5085935050505092915050565b600081519050919050565b600082825260208201905092915050565b6000819050602082019050919050565b6000819050919050565b61065881610645565b82525050565b600061066a838361064f565b60208301905092915050565b6000602082019050919050565b600061068e82610619565b6106988185610624565b93506106a383610635565b8060005b838110156106d45781516106bb888261065e565b97506106c683610676565b9250506001810190506106a7565b5085935050505092915050565b600081519050919050565b600082825260208201905092915050565b6000819050602082019050919050565b600082825260208201905092915050565b600061072982610529565b610733818561070d565b935061073e83610545565b8060005b8381101561076f5781516107568882610596565b9750610761836105ae565b925050600181019050610742565b5085935050505092915050565b6000610788838361071e565b905092915050565b6000602082019050919050565b60006107a8826106e1565b6107b281856106ec565b9350836020820285016107c4856106fd565b8060005b8581101561080057848403895281516107e1858261077c565b94506107ec83610790565b925060208a019950506001810190506107c8565b50829750879550505050505092915050565b6000606082019050818103600083015261082c81866105bb565b905081810360208301526108408185610683565b90508181036040830152610854818461079d565b9050949350505050565b600080fd5b61086c81610645565b811461087757600080fd5b50565b60008135905061088981610863565b92915050565b61089881610575565b81146108a357600080fd5b50565b6000813590506108b58161088f565b92915050565b600080604083850312156108d2576108d161085e565b5b60006108e08582860161087a565b92505060206108f1858286016108a6565b9150509250929050565b600080604083850312156109125761091161085e565b5b6000610920858286016108a6565b92505060206109318582860161087a565b9150509250929050565b7f4e487b7100000000000000000000000000000000000000000000000000000000600052603260045260246000fd5b7f4e487b7100000000000000000000000000000000000000000000000000000000600052601160045260246000fd5b6000819050919050565b60006109ae82610999565b91507fffffffffffffffffffffffffffffffffffffffffffffffffffffffffffffffff82036109e0576109df61096a565b5b60018201905091905056fea264697066735822122000142e2ee3a80afe9ade498a45ad775982b6fbf4d9980a45fa3adf027cbffd3164736f6c634300080f0033",
  "immutableReferences": {},
  "source": "// SPDX-License-Identifier: MIT\npragma solidity >=0.4.22 <0.9.0;\n\ncontract image {\n  address[] _users;\n  bytes32[] _images;\n  address[][] _tokens;\n\n  mapping(bytes32=>bool) imgs;\n\n  function addImage(address user,bytes32 imageT) public {\n    require(!imgs[imageT]);\n\n    imgs[imageT]=true;\n    _users.push(user);\n    _images.push(imageT);\n    _tokens.push([user]);\n  }\n\n  function viewImages() public view returns(address[] memory,bytes32[] memory,address[][] memory){\n    return(_users,_images,_tokens);\n  }\n\n  function addToken(bytes32 img,address user) public {\n    uint i;\n    \n    for(i=0;i<_images.length;i++){\n        if(_images[i]==img){\n            _tokens[i].push(user);\n        }\n    }\n  }\n}\n",
  "sourcePath": "/Users/ms/Desktop/WiFi-Imaging-System/contracts/image.sol",
  "compiler": {
    "name": "solc",
    "version": "0.8.15+commit.e14f2714.Emscripten.clang"
  },
  "schemaVersion": "3.4.8",
  "updatedAt": "2023-02-06T09:07:58.053Z",
  "networkType": "ethereum",
  "devdoc": {
    "kind": "dev",
    "methods": {},
    "version": 1
  },
  "userdoc": {
    "kind": "user",
    "methods": {},
    "version": 1
  }
}