{
  "contractName": "register",
  "abi": [
    {
      "inputs": [
        {
          "internalType": "address",
          "name": "username",
          "type": "address"
        },
        {
          "internalType": "uint256",
          "name": "password",
          "type": "uint256"
        }
      ],
      "name": "registerUser",
      "outputs": [],
      "stateMutability": "nonpayable",
      "type": "function"
    },
    {
      "inputs": [],
      "name": "viewUsers",
      "outputs": [
        {
          "internalType": "address[]",
          "name": "",
          "type": "address[]"
        },
        {
          "internalType": "uint256[]",
          "name": "",
          "type": "uint256[]"
        }
      ],
      "stateMutability": "view",
      "type": "function",
      "constant": true
    },
    {
      "inputs": [
        {
          "internalType": "address",
          "name": "username",
          "type": "address"
        },
        {
          "internalType": "uint256",
          "name": "password",
          "type": "uint256"
        }
      ],
      "name": "loginUser",
      "outputs": [
        {
          "internalType": "bool",
          "name": "",
          "type": "bool"
        }
      ],
      "stateMutability": "view",
      "type": "function",
      "constant": true
    }
  ],
  "bytecode": "0x608060405234801561001057600080fd5b50610750806100206000396000f3fe608060405234801561001057600080fd5b50600436106100415760003560e01c806314ebdb7914610046578063eb72346b14610065578063fa0b5e5514610095575b600080fd5b61004e6100b1565b60405161005c92919061056a565b60405180910390f35b61007f600480360381019061007a91906105fe565b61019a565b60405161008c9190610659565b60405180910390f35b6100af60048036038101906100aa91906105fe565b610273565b005b606080600060018180548060200260200160405190810160405280929190818152602001828054801561013957602002820191906000526020600020905b8160009054906101000a900473ffffffffffffffffffffffffffffffffffffffff1673ffffffffffffffffffffffffffffffffffffffff16815260200190600101908083116100ef575b505050505091508080548060200260200160405190810160405280929190818152602001828054801561018b57602002820191906000526020600020905b815481526020019060010190808311610177575b50505050509050915091509091565b600080600090505b600080549050811015610267578373ffffffffffffffffffffffffffffffffffffffff16600082815481106101da576101d9610674565b5b9060005260206000200160009054906101000a900473ffffffffffffffffffffffffffffffffffffffff1673ffffffffffffffffffffffffffffffffffffffff161480156102455750826001828154811061023857610237610674565b5b9060005260206000200154145b1561025457600191505061026d565b808061025f906106d2565b9150506101a2565b60009150505b92915050565b600260008373ffffffffffffffffffffffffffffffffffffffff1673ffffffffffffffffffffffffffffffffffffffff16815260200190815260200160002060009054906101000a900460ff16156102ca57600080fd5b6000829080600181540180825580915050600190039060005260206000200160009091909190916101000a81548173ffffffffffffffffffffffffffffffffffffffff021916908373ffffffffffffffffffffffffffffffffffffffff16021790555060018190806001815401808255809150506001900390600052602060002001600090919091909150556001600260008473ffffffffffffffffffffffffffffffffffffffff1673ffffffffffffffffffffffffffffffffffffffff16815260200190815260200160002060006101000a81548160ff0219169083151502179055505050565b600081519050919050565b600082825260208201905092915050565b6000819050602082019050919050565b600073ffffffffffffffffffffffffffffffffffffffff82169050919050565b6000610409826103de565b9050919050565b610419816103fe565b82525050565b600061042b8383610410565b60208301905092915050565b6000602082019050919050565b600061044f826103b2565b61045981856103bd565b9350610464836103ce565b8060005b8381101561049557815161047c888261041f565b975061048783610437565b925050600181019050610468565b5085935050505092915050565b600081519050919050565b600082825260208201905092915050565b6000819050602082019050919050565b6000819050919050565b6104e1816104ce565b82525050565b60006104f383836104d8565b60208301905092915050565b6000602082019050919050565b6000610517826104a2565b61052181856104ad565b935061052c836104be565b8060005b8381101561055d57815161054488826104e7565b975061054f836104ff565b925050600181019050610530565b5085935050505092915050565b600060408201905081810360008301526105848185610444565b90508181036020830152610598818461050c565b90509392505050565b600080fd5b6105af816103fe565b81146105ba57600080fd5b50565b6000813590506105cc816105a6565b92915050565b6105db816104ce565b81146105e657600080fd5b50565b6000813590506105f8816105d2565b92915050565b60008060408385031215610615576106146105a1565b5b6000610623858286016105bd565b9250506020610634858286016105e9565b9150509250929050565b60008115159050919050565b6106538161063e565b82525050565b600060208201905061066e600083018461064a565b92915050565b7f4e487b7100000000000000000000000000000000000000000000000000000000600052603260045260246000fd5b7f4e487b7100000000000000000000000000000000000000000000000000000000600052601160045260246000fd5b60006106dd826104ce565b91507fffffffffffffffffffffffffffffffffffffffffffffffffffffffffffffffff820361070f5761070e6106a3565b5b60018201905091905056fea264697066735822122044e23690bd466b729ff587b7750056659fb45e0211c8ea657e485c43de722e0f64736f6c634300080f0033",
  "immutableReferences": {},
  "source": "// SPDX-License-Identifier: MIT\npragma solidity >=0.4.22 <0.9.0;\n\ncontract register {\n  \n  address[] _users;\n  uint[] _passwords;\n\n  mapping(address=>bool) users;\n\n  function registerUser(address username,uint password) public {\n    require(!users[username]);\n\n    _users.push(username);\n    _passwords.push(password);\n    users[username]=true;\n  }\n\n  function viewUsers() public view returns(address[] memory,uint[] memory) {\n    return(_users,_passwords);\n  }\n\n  function loginUser(address username,uint password) public view returns(bool){\n    uint i;\n\n    for(i=0;i<_users.length;i++) {\n      if(_users[i]==username && _passwords[i]==password) {\n        return true;\n      }\n    }\n    return false;\n  }\n}\n",
  "sourcePath": "/Users/ms/Desktop/WiFi-Imaging-System/contracts/register.sol",
  "compiler": {
    "name": "solc",
    "version": "0.8.15+commit.e14f2714.Emscripten.clang"
  },
  "schemaVersion": "3.4.8",
  "updatedAt": "2023-02-06T16:25:50.319Z",
  "networkType": "ethereum",
  "devdoc": {
    "kind": "dev",
    "methods": {},
    "version": 1
  },
  "userdoc": {
    "kind": "user",
    "methods": {},
    "version": 1
  }
}